:020000040800F2
:10000000686900200D0300085D6300089D1C00085E
:10001000395E0008B1180008817300080000000074
:100020000000000000000000000000005502000871
:10003000B318000800000000A9020008F16B0008D6
:1000400027030008270300082703000827030008E8
:1000500027030008270300082703000827030008D8
:1000600027030008270300082703000827030008C8
:1000700027030008270300082703000827030008B8
:1000800027030008270300082703000827030008A8
:100090002703000827030008270300082703000898
:1000A0002703000827030008270300082703000888
:1000B00027030008616C00082703000827030008D5
:1000C0002703000827030008270300082703000868
:1000D000270300084D6E0008B16E0008196F000874
:1000E0002703000827030008270300082703000848
:1000F0002703000827030008270300082703000838
:100100002703000827030008270300082703000827
:10011000270300082703000827030008F56C0008E0
:100120002703000827030008270300082703000807
:1001300027030008270300082703000827030008F7
:1001400027030008270300082703000827030008E7
:1001500027030008270300082703000827030008D7
:1001600027030008270300082703000827030008C7
:1001700027030008270300082703000827030008B7
:10018000270300082703000800F002F800F052F8E7
:100190000AA090E8000C82448344AAF10107DA45E2
:1001A00001D100F047F8AFF2090EBAE80F0013F0E2
:1001B000010F18BFFB1A43F00103184788B1000074
:1001C000A8B10000103A24BF78C878C1FAD8520705
:1001D00024BF30C830C144BF04680C6070470000C1
:1001E0000023002400250026103A28BF78C1FBD840
:1001F000520728BF30C148BF0B607047662909F01D
:100200005384642900F01681782900F07A817329DB
:1002100000F01F86002070471FB509F040FC00F079
:1002200065FE04000020002109F074FAE0601FBDA3
:1002300010B510BD00F056FF1146FFF7EDFF07F0B7
:1002400035F900F074FF03B4FFF7F2FF03BC07F0C9
:10025000B7F800002A4B19680868B0E8F04F80F33F
:100260000988BFF36F8F4FF0000080F3118870474B
:100270000000000006480068006880F3088862B645
:1002800061B6BFF34F8FBFF36F8F00DF00BF00BFBA
:1002900008ED00E0DFF80C00016841F47001016036
:1002A000704700BF88ED00E0EFF30980BFF36F8F68
:1002B000134B1A681EF0100F08BF20ED108A20E9BA
:1002C000F04F106008B44FF0500080F31188BFF376
:1002D0004F8FBFF36F8F08F0EDFB4FF0000080F3FE
:1002E000118808BC19680868B0E8F04F1EF0100FBC
:1002F00008BFB0EC108A80F30988BFF36F8F704796
:1003000088000020EFF3058070470000094880470F
:1003100009480047FEE7FEE7FEE7FEE7FEE7FEE7E7
:10032000FEE7FEE7FEE7FEE704480549054A064BFF
:1003300070470000056C0008890100086863002010
:10034000686900206865002068650020704700002B
:100350000FB4044910B503AA029800F07FFD10BC49
:100360005DF814FB740000200FB41CB5084B06AAFE
:100370007B4469460090059800F041FD044600204A
:10038000694600F04FFD20461CBC5DF814FB0000E0
:10039000B10A000070B5044685690068C10601D540
:1003A000302600E02026C00707D070BDD4E9012127
:1003B00030469047206A401C20626D1EF6D570BD05
:1003C00070B5044685690078C00707D170BDD4E9CF
:1003D000012120209047206A401C20626D1EF6D526
:1003E00070BD70B50C460546012A05D028788006F8
:1003F00000D5EA69002302E0012305E05B1C93427B
:1004000002D2E05C0028F9D1A869E618C01AA861F8
:10041000286A184428622846FFF7BCFF04E0D5E9A3
:10042000012114F8010B9047B442F8D32846FFF796
:10043000C7FF70BD2DE9F0410646002410687529FC
:10044000314616A510D0AFF30080002802DA4042F2
:1004500013A507E031688A0701D512A502E0490714
:1004600004D511A5012401E0AFF3008000210A2288
:1004700006F1240709E0B0FBF2FCB0FBF2F302FB4B
:100480001C00303078541846491C0028F3D123460C
:100490002A463046BDE8F04100F046BA00000000B0
:1004A0002D0000002B00000020000000F0B40D46DD
:1004B0000188090502D5214C7C4402E01F4C7C4494
:1004C0000E34002100F1240608E002F00F071209A3
:1004D000E75D42EA03721B097754491C52EA03079D
:1004E000F3D102780023120704D5702D06D009B18C
:1004F000022311342246F0BC00F016BA0123103456
:10050000F8E770B504460D4621461068AFF3008049
:10051000024629462046BDE870400023C6E7D21DAA
:1005200022F00703D3E90023C0E70368126843F011
:10053000200303600823C3610023B7E7BAAD0000BE
:100540002DE9F05F894604464FF0000ADFF874B1E8
:10055000FB44C0F820A02046E1688847002874D0FA
:10056000252806D0D4E901219047206A401C20624A
:10057000F1E700265F462046E168884720280546C7
:1005800007DB312D05D2781910F8200C08B106438D
:10059000F1E7B00701D526F00406C4F81CA0002737
:1005A000C4F818A02A2D09D0284606F002FF38B357
:1005B00004EB8708303DC8F8185019E059F8041BBF
:1005C000204604EB87029161E1688847012F0546C8
:1005D00018D1E069002820DA26F020061DE0D8F8BE
:1005E000180000EB800005EB40003038C8F8180018
:1005F0002046E1688847054606F0DBFE0028EED17C
:10060000012F0AD02E2D08D12046E16888477F1C93
:100610000546022F46F02006C4DBA069002803DA55
:10062000404246F00106A061F00701D026F0100616
:100630006C2D0BD0682D09D04C2D39D06A2D35D0BA
:10064000742D35D07A2D33D016E038E0E1682F468E
:1006500020468847B842054609D16C2F26D04FF472
:100660008060E168064320468847054604E06C2F19
:100670001AD04FF4807006430DB3A5F1410019283C
:1006800002D8203546F400664A46294620462660B0
:100690004E46FFF7B3FD80B101280BD0F61D26F0C2
:1006A000070000F1080956E74020E4E78020D8E77A
:1006B0000020D6E706F104094DE7284652E7206AF4
:1006C000BDE8F09F4AAD000030B505460B462A460E
:1006D00013F8014B12F8010B08B1A042F8D01CB17D
:1006E000002802D06D1CF1E7284630BD40EA010326
:1006F000024630B59B0710D14FF0013400E008C22C
:1007000008C91D1B9D4315EAC41FF8D013F0FF0153
:1007100002F8011B0DD01B0AF8E711F8013B002B72
:1007200002F8013B05D011F8013B002B02F8013B18
:10073000F3D130BD10B5431C02E010F8011B71B1BC
:100740008107FAD14FF0013202C88C1A8C4314EAA7
:10075000C211F9D0C01A0A0603D0C01E10BDC01ABB
:1007600010BD0A0401D0801E10BD0902FCD0401E3D
:1007700010BD032A40F2308010F0030C00F0158009
:1007800011F8013BBCF1020F624498BF11F801CB94
:1007900000F8013B38BF11F8013BA2F1040298BFF9
:1007A00000F801CB38BF00F8013B11F0030300F063
:1007B0006783083AC0F0088051F8043B083A51F8C2
:1007C00004CBA0E80810F5E7121D5CBF51F8043B0C
:1007D00040F8043BAFF30080D20724BF11F8013B7F
:1007E00011F801CB48BF11F8012B24BF00F8013BE1
:1007F00000F801CB48BF00F8012B704702F0FF035F
:1008000043EA032242EA024200F002B84FF000023B
:100810000429C0F0128010F0030C00F01B80CCF112
:10082000040CBCF1020F18BF00F8012BA8BF20F880
:10083000022BA1EB0C0100F00DB85FEAC17C24BFD4
:1008400000F8012B00F8012B48BF00F8012B70477E
:100850004FF0000200B5134694469646203922BF59
:10086000A0E80C50A0E80C50B1F12001BFF4F7AFA4
:10087000090728BFA0E80C5048BF0CC05DF804EB86
:10088000890028BF40F8042B08BF704748BF20F8F4
:10089000022B11F0804F18BF00F8012B70470000A9
:1008A0004FF0013C50F8042B51F8043B9A4221D1FF
:1008B000A2EB0C03934313EACC1317D150F8042B8B
:1008C00051F8043B9A4215D1A2EB0C03934313EA6F
:1008D000CC130BD150F8042B51F8043B9A4209D1A8
:1008E000A2EB0C03934313EACC13DBD04FF00000D0
:1008F000704700BFD01A01BAB1FA81F101F01801B6
:1009000022FA01F0CB40C1F12001DBB2C0B2C01A23
:100910002CFA01F3D11A914311EAC311E6D17047C1
:1009200070477047704770472DE9F0470D4699466C
:100930009246044600F124080168880604D5E0695F
:1009400021F01001216000E00120A84201DD471BD9
:1009500000E00027A1697A1902EB0900081AA061DA
:100960002078C00602D42046FFF714FD002608E0D8
:10097000D4E901211AF806009047206A401C761C31
:1009800020624E45F4DB2078C0060AD52046FFF7EA
:1009900001FD06E0D4E9012130209047206A401C87
:1009A0002062381EA7F10107F4DC07E0D4E9012139
:1009B00018F805009047206A401C2062281EA5F107
:1009C0000105F3DC2046FFF7FBFC2078000602D58A
:1009D0000220BDE8F0870120FBE770472DE9FF4FBB
:1009E0000C461E464FF0FF378BB0D2E90001DDF810
:1009F00060800A908A46C1F30A5505B93D46002138
:100A000008464FF00000BAF1000F00F4400005DA8C
:100A100000EB80004FF4400101EA50004FEA90598A
:100A2000B9F1010F00DDB9460A9850EA4A000ED02C
:100A300044F61050A5F2FF3545432F14B8F1000FCE
:100A40001ED07542291E1EDDC9F100021CE0B8F15E
:100A5000010F4FF0000001D0302103E0F24305E028
:100A60002154401CB042FBDB3046002200212154BF
:100A70000B99C1F80880C1E900200FB0BDE8F08FE4
:100A8000BD1B6D1CDEE74A4600DA694206A800F08D
:100A9000B7FA06AB93E8070003AB83E807005046BC
:100AA0000A9900F04AFB8DE80700A0F500501F38B6
:100AB00000900398002D09DD42F21F014A460844C8
:100AC00003A90390684600F0A9FD08E0A0F50050D6
:100AD0004A461F3803A90390684600F0B3FD8DE82D
:100AE00007000004000C03D04FF0FF30410800E085
:100AF0001046B8F1000F03D00022009215461EE008
:100B0000751E05D400F0F6F9303262556D1EF9D528
:100B1000B3460122084302D000227F1C04E0207863
:100B2000302801D100227F1E002A099786D01DE0BF
:100B3000112D07DA00F0DEF9303262556D1C50EAF3
:100B40000102F5D1084302D00098C8B10EE000219F
:100B5000681E05E0235C625C63542254401E491CFD
:100B60008142F7DBAB46A81B401E0990002004F829
:100B70000B000B98099AC0F80880C0E9002B7CE7AD
:100B800011264FF0000859E72DE9F04F884604463A
:100B9000D21D22F0070191B0D1E90001CDE90A018F
:100BA00006F0EFFB02460B98C00F01D02D2007E0A6
:100BB0002068810701D52B2002E0202101EAC00036
:100BC000032A099001D0072A05DB03464146204647
:100BD00000F0D6F90BE12078800601D5E06900E04D
:100BE0000620B8F1650F814606D0B8F1660F18D01F
:100BF000B8F1670F70D131E00020B9F1110F00900A
:100C000001DB112301E009F101030AAA01A90CA8E3
:100C1000FFF7E4FEDDE90C70002609F101058346CB
:100C200047E001204B4600904FF000470AAA01A977
:100C30000CA8FFF7D3FEDDE90DB00C995D46002648
:100C400010B909F101000D18B9EB050003D4C0F18A
:100C5000FF3609F10105A5EB09002BE0B9F1010F01
:100C600001DA4FF001090020B9F1110F0090484658
:100C700001DD112300E003460AAA01A90CA8FFF731
:100C8000ADFEDDE90C704D46002683462078000756
:100C90000AD4AB4500DA5D4601A8012D04DD4119F7
:100CA00011F8011C302907D04F4502DA17F1040F63
:100CB00004DA012082460FE06D1EEEE7002F02DC11
:100CC000ED1B3E4403E0781CA84200DD7D1CB81BF0
:100CD00000F1010A4FF000472078000703D4AA452D
:100CE00001DB4FF0FF3A0021B7F1004F0DF143084F
:100CF0008DF8431024D002202B23002F01DA7F42ED
:100D00002D230A21021EA0F1010000DC5FB197FB38
:100D1000F1FC97FBF1F201FB1C7C17460CF1300C47
:100D200008F801CDEEE7A8F101000370218809055C
:100D300001D5452100E06521A0F1010800F8011C62
:100D400009980FA9A1EB0807FF1D00B10120411967
:100D500001EBEA70A1693844081A401EA0612078AE
:100D6000C00602D42046FFF715FB099828B1D4E944
:100D700001219047206A401C20622078C00622D5BD
:100D80002046FFF707FB1EE0002E04DBB34502DD23
:100D900001A8805D00E03020D4E901219047206A5D
:100DA000401C2062761CAAF101005FEA000A0AD109
:100DB00000F09CF8C0680168405CD4E901219047CC
:100DC000206A401C2062281EA5F10105DCDC07E03A
:100DD000D4E9012118F8010B9047206A401C2062D9
:100DE000381EA7F10107F3DC2046FFF7E9FA0320DC
:100DF00011B043E601694A1C02610878704700B5EA
:100E00008FB0CDE901310021059105497944CDE943
:100E1000031011466846FFF793FB0FB000BD0000BA
:100E2000E5FFFFFF0A6802F8010B0A60704710B582
:100E3000436913B1AFF3008001E0FFF7D2FA01205C
:100E400010BD127800F124010A7000224A700122BC
:100E5000EDE711684FF0FF32E9E70000074B70B58E
:100E60000D467B44FFF7CBFF0446284600F036F9D9
:100E700010B14FF0FF3070BD204670BD33660000EA
:100E800010B5203AC0F00B80B1E81850203AA0E825
:100E90001850B1E81850A0E81850BFF4F5AF5FEA59
:100EA000027C24BFB1E81850A0E8185044BF18C90C
:100EB00018C0BDE810405FEA827C24BF51F8043BB3
:100EC00040F8043B08BF7047D20728BF31F8023B07
:100ED00048BF11F8012B28BF20F8023B48BF00F89B
:100EE000012B70470048704704630020004870479A
:100EF0002463002030B5B0F10A024FEA900E71F180
:100F000000034EEA817EB0EB0E0061EB91014FEAE7
:100F1000101E4EEA017E10EB0E0041EB11114FEA5C
:100F2000102E4EEA016E10EB0E0041EB11214FEA3C
:100F3000104E4EEA014E10EB0E0041EB11414018ED
:100F400041F100014FEAD00040EA41704FEAD1017F
:100F500010EB80054FEA810444EA907444EB0104ED
:100F60006D1944EB0404521BA3414FF0000348BF2A
:100F70000A3200D530BD401C41F1000130BD0000F7
:100F80002DE9F0411F46044603260168072A01F4B3
:100F9000006004DB08B116A505E016A503E008B162
:100FA00015A500E015A521F010002060A069C01E65
:100FB000A0610FB1401EA0612046FFF7EBF94FB1D1
:100FC000D4E9012138469047206A401C2062C01CA9
:100FD000206206E0206AFAE7D4E9012115F8010B46
:100FE0009047761EF8D22046FFF7EAF9BDE8F08177
:100FF0004E414E006E616E00494E4600696E6600BD
:101000002DE9F047814616468AB0334878440DC82A
:101010008DE80D0030487844801C03AC0DC884E88E
:101020000D0041F69B300844372190FBF1F290FB14
:10103000F1F5A5F1800501FB12041B3C02D56442C9
:10104000012000E00020DFF890A080460027FA444D
:10105000AAF1BE0A0DE0E00709D03246684607EB68
:1010600047010AEB810100F0EDFA8DE807006410FA
:101070007F1C002CEFD1184F7F44AC3F18E0E807ED
:1010800014D007EB04100DF1180A90E80E008AE85E
:101090000E00C068F04201D198190890324606A9A6
:1010A00003A800F0CFFA03AB83E807006D10641CBF
:1010B000002DE4D132466946B8F1000F03A802D0F2
:1010C00000F0ACFA01E000F0BDFAC9E90001C9F88E
:1010D00008200AB0BDE8F0871CA30000007B00F0E8
:1010E000800070477546FFF7FDFEAE460500694675
:1010F000534620F00700854618B020B5FFF714F9D5
:10110000BDE820404FF000064FF000074FF0000808
:101110004FF0000B21F00701AC46ACE8C009ACE889
:10112000C009ACE8C009ACE8C0098D467047044668
:10113000AFF300802046FFF786F85FEA400C08BF57
:1011400091F0000F4FEA8C234FEAC12243EA51513C
:101150004FEA1C5018BF00F5F0404FEA300018BFAE
:1011600041F000415FEA6C5C00F02980BCF1FF3F78
:1011700008BF40F080407047130C06BF12044FF0C8
:10118000100C4FF0000C130E04BF12020CF1080CEF
:10119000130F04BF12010CF1040C930F04BF920053
:1011A0000CF1020CD30F04BF52000CF1010C1146DC
:1011B0004FF00002A0F11F00A0EB0C00704711F0EF
:1011C000004F08BF704731F000413FF4D5AF0B0C22
:1011D00006BF09044FF0100C4FF0000C0B0E04BFBB
:1011E00009020CF1080C0B0F04BF09010CF1040CEF
:1011F0008B0F04BF89000CF1020CCB0F04BF490018
:101200000CF1010CCCF12003A0EB0C0022FA03F34B
:1012100002FA0CF241EA030100F10100704720F0EC
:101220007F4C80EA030023F07F47ACEB070303F514
:101230007C5300F0004003F1FF032DE980494FEAA1
:10124000154B09B44FEA144325EA0B4E24EA034830
:101250000FF2042606EB132749083E785FEA3202B4
:1012600003FB0667C7F5000707FB06F64FEA54378E
:101270004FEAD64606F1020607FB066CCCF1005C8D
:101280004FEA1C472CEA074C07FB06F40CFB06F55B
:1012900004EB15464FEA961634BF00204FF000408D
:1012A0004FEAD13706FB07FC4FEA1C4C0CFB0BF74F
:1012B000D21B03FB0CF761EB07010CFB0EF7B0EB45
:1012C000074072EB17420CFB08F734BFA2EB074252
:1012D000B2EB074261EB17414FEA0C444FEA91072A
:1012E00006FB07FC4FEA1C4C0CFB0BF7B0EBC740AE
:1012F00072EB573203FB0CF734BFA2EBC742B2EBE1
:10130000C74261EB57310CFB0EF7B0EBC70072EB35
:1013100057720CFB08F734BFA2EBC702B2EBC7024F
:1013200061EB5771039F4FEA816141EA921104EB2F
:10133000CC044FEAD1374FEA826206FB07FC42EA4F
:1013400090124FEA80604FEA1C4C0CFB0BF7D21B4B
:1013500003FB0CF761EB07010CFB0EF7B0EB07404A
:1013600072EB17420CFB08F734BFA2EB0742B2EB5B
:10137000074261EB17414FEA8C554FEA910704EBA6
:101380009C2406FB07FC4FEA1C4C0CFB0BF7B0EB54
:10139000C74072EB573203FB0CF734BFA2EBC742D6
:1013A000B2EBC74261EB57310CFB0EF7B0EBC70055
:1013B00072EB57720CFB08F734BFA2EBC702B2EB1B
:1013C000C70261EB577115EB4C254FEA816141EA89
:1013D00092114FEA82624FEAD13742EA901206FB3D
:1013E00007FC44F100044FEA80604FEA1C4C0CFB00
:1013F0000BF7D21B03FB0CF761EB07010CFB0EF79D
:10140000B0EB074072EB17420CFB08F734BFA2EBBE
:101410000742B2EB074261EB174115EB1C154FEA8F
:10142000813141EA92414FEA823242EA90424FEAE8
:1014300080304FEA0C7644F1000448EA03434EEA58
:101440000B484FF0000EB2EB080C71EB030724BF02
:10145000624639464EEB0E0E4FF0000B001852411B
:1014600049414BEB0B0BB2EB080C71EB03077BF123
:10147000000B24BF624639464EEB0E0E4FF0000BB8
:101480000018524149414BEB0B0BB2EB080C71EBCE
:1014900003077BF1000B24BF624639464EEB0E0E6C
:1014A00051EA020718BF46F0010616EB0E7655F119
:1014B000000254F1000103D5BDE88901BDE80088B0
:1014C000BDE88901BDE80048B619524141EB010170
:1014D000A3F10103704780807F7E7D7C7B7A7978E1
:1014E000777676757473727171706F6E6E6D6C6CE9
:1014F0006B6A6A696868676666656464636362618B
:101500006160605F5F5E5E5D5D5C5C5B5B5A5A590B
:101510005958585757565655555554545353525277
:101520005251515050504F4F4F4E4E4D4D4D4C4CCF
:101530004C4B4B4B4A4A4A49494948484847474718
:101540004746464645454544444444434343434255
:10155000424242414141002B26D4770021D01CB5A4
:101560004FEA370703B44FF010004FF010014FF06F
:1015700000000FBCBDE810400BF1010BBBF1010FE7
:1015800008BF5FEA170722BF12F1010211F1010142
:101590004FF0004143F1000300F0004043EA000037
:1015A0007047F9D35708DAE746EA064613F1400FC9
:1015B0004FEA16461FDD13F1200FDFBF16430A4620
:1015C000002120335B42C8D0C3F1200746EA06461B
:1015D00002FA07F74FEA164646EA0706C3F1200764
:1015E00022FA03F201FA07F721FA03F14FF00003A0
:1015F00042EA0702B1E746EA020646EA06464FEA31
:10160000164646EA0106BCBF46EA0646360C4FF0CF
:1016100000034FF000024FF000019EE72DE9C048A3
:10162000934630B491E8380007C831EA400C48BF0F
:1016300034EA430C03D5FFF7F2FDFFF78CFFF0BC53
:10164000BDE800882DE9C048934630B491E83800E1
:1016500007C810F0804F08BF13F0804F03D100F08F
:1016600005F8FFF778FFF0BCBDE8008820F07F4761
:1016700080EA030023F07F4C07EB0C03A3F57C53B7
:1016800000F00040A3F1FE0392F0000F00F0B380E1
:1016900095F0000F00F077802DE901494FEA1140E5
:1016A0004FEA144621EA004800FB06FC24EA0647FC
:1016B00008FB06F607FB08F800FB07F718EB0648DF
:1016C0004CEB164C4FEA124B18EB07484FEA154605
:1016D0004CEB174022EA0B4E0BFB06FC25EA0647B3
:1016E0000EFB06F607FB0EFE0BFB07F71EEB064E86
:1016F0004CEB164C4FF000061EEB074E4CEB174B15
:1017000018EB0B0840F1000018EB0E0B58EB00082B
:1017100040F100008F1A4FF000013CBFC943661B27
:1017200014BFB5EB040C00213CBFC943F61B4FEAC4
:1017300017444EEA8E0E27EA04454FEA1C4704FB85
:1017400007622CEA074C05FB07F70CFB05F604FBC8
:101750000CFC16EB074642EB174216EB0C4642EB2D
:101760001C421BEB060658EB0202414146EA9E066C
:1017700001D5BDE80189B619524141EB0101A3F140
:101780000103BDE801894FEA14454FEA114724EAF5
:10179000054621EA074C05FB07F406FB07F70CFB9F
:1017A00006F105FB0CFC11EB074144EB17444FEA33
:1017B000124711EB0C4144EB1C4422EA074C05FB99
:1017C00007F206FB07F70CFB06F605FB0CFC16EB15
:1017D000074642EB174216EB0C4642EB1C456A18D3
:1017E00054F1000148BF7047B619524141EB010165
:1017F000A3F10103704795F0000F37D04FEA114273
:101800004FEA144721EA024624EA074C02FB07F19B
:1018100006FB07F70CFB06F402FB0CFC14EB074479
:1018200041EB17414FEA154714EB0C4441EB1C41C7
:1018300025EA074C02FB07F506FB07F70CFB06F64B
:1018400002FB0CFC16EB074645EB174516EB0C4666
:1018500045EB1C42121951F1000148BF7047B619FF
:10186000524141EB0101A3F1010370474FEA1445D6
:101870004FEA114724EA054621EA074C05FB07F128
:1018800006FB07F70CFB06F24FF0000605FB0CFC0D
:1018900012EB074241EB174112EB0C4251EB1C419A
:1018A00048BF7047921841EB0101A3F10103704753
:1018B000FEE7704770B515460E460446FEF73AFF40
:1018C000C1B2204606F0A0FD284605F0AFFD06F0A7
:1018D00067FD04493046FEF7E3FF08B1002070BD04
:1018E000012070BD8A05002070B54FF47A752A4634
:1018F00005A109A0FFF7DEFF04462A4609A10AA0B8
:10190000FFF7D8FF204670BD41542B494E464F3D4E
:101910006661696C6564000041542B474150535423
:10192000415455530000000041542B5253540000C1
:101930008000A0F1C0400029016802D041F00101FF
:1019400001E0024A1140016070470000FEFF0F00F5
:1019500010B5D0E901121143D0E903231A43114312
:101960004269114382691143C2691143026A1143FA
:10197000426A1143826A1143C26A1143026B1143E6
:1019800002689200A2F1C04211608168082907D163
:1019900001688900A1F1C0410A6842F040020A6072
:1019A000416BD1E9002342EA03128B688C891B0248
:1019B00043EA04431A430B8A42EA03520B7D8969C6
:1019C00042EA03620A4301688900A1F1C0414A600A
:1019D000C16AB1F5804F08D000686FF07041800097
:1019E000A0F1C040C0F8041110BD816BD1E9002303
:1019F00042EA03128B680C8A1B0243EA04531A431F
:101A00000B7D896942EA036200680A438000A0F105
:101A1000C040C0F8042110BDF0B5002201274FF0EE
:101A2000030C0B6807FA02F52B40AB422CD1066879
:101A300053000CFA03F4A64306600E79D0F800E0D8
:101A40009E4046EA0E0606600E79012E01D0022E57
:101A500012D18668A64386604E79D0F808E09E4091
:101A600046EA0E0686604668AE43466045688E7953
:101A70009640B6B235434560C568A543C560CC798C
:101A80009C40C3681C43C460521C102AC9D3F0BDDB
:101A90004B07DB0E9A40C90810B500EB8100016AC4
:101AA0000F249C40A1430162016A1143016210BDF1
:101AB0000183704770B50C46054604F053FA214681
:101AC000284604F0CFF92146284604F0FBF92146C8
:101AD000284604F0BBFA21462846BDE8704004F0D1
:101AE000AFBB00001F201649164E174C174D08803B
:101AF0000027642006F02CFE30880004F9D53088D9
:101B0000134BC0F30E02A280678003E0195C2954D6
:101B1000401C608060889042F8D3378080B20B49C7
:101B20002F5401F54870FFF7C5FF00F017F8207833
:101B30000028DED0054907A0FEF70AFCD9E700001F
:101B4000640000206A00002000000020FC0000204B
:101B5000D00B00200D0A25730D0A000070B53C491A
:101B60003C4C1F202DED028B82B00880D4F8490038
:101B70009FED398A00EE100A3C34F8EE400A80EE00
:101B8000880A10EE100A07F019FF41EC100B607C78
:101B9000009053EC102B31A104F13000FEF7E4FB70
:101BA000102604F13005CDE90065C8223346114600
:101BB0001E2004F02AF8294601F13200FEF796FDB6
:101BC00094ED020AF8EE400A80EE880A10EE100A40
:101BD00007F0F4FE41EC100B207B009053EC102B2F
:101BE0001EA12846FEF7C0FBCDE900651023C822E0
:101BF000DC211E2004F009F8294601F15000FEF70F
:101C000075FD20790090E378B4F8012015A12846ED
:101C1000FEF7AAFBCDE900651023C822F0211E20A3
:101C200003F0F3FFE0790090A379627914A12846CC
:101C3000FEF79AFBCDE900651023C8224FF48271AC
:101C40001E2003F0E2FF02B0BDEC028B70BD00006D
:101C5000640000201C0400200050C347252E356678
:101C60000000000055544320446174653A25303427
:101C7000642F253032642F2530326420202000006C
:101C80005554432054696D653A253032643A253005
:101C900032643A253032642020200000FEE7000044
:101CA0002DE9F043184F0646002438887D884543C7
:101CB000B888A0F5D041043902D1B879012808D0FC
:101CC0000021084603F058FE03F0E2FF4FF0D84031
:101CD00016E00020B8714FF02A09A7F80A904FF0DB
:101CE0002B08A7F80C80014603F046FE0120B871CE
:101CF000A7F80A80A7F80C90E6E7A0F88060641CBB
:101D0000AC42FAD3BDE8F0837C0500202DE9F04F0A
:101D10004A492A232B24898845F2105A4FF4305B14
:101D20004FF4285E4FF448754FF0F00C49F24139FA
:101D30004FF4A07745F210364FF4F07280B13F486F
:101D40004FF00108494580F806800780A0F802C0DE
:101D500001D0B1423ED12C2505814381848157E0D9
:101D600036484FF00008494580F80680A0F800C0CA
:101D7000478006D0A1F5D04CBCF1040C01D0B14293
:101D80000CD12C2505814381A1F5D0438481043BEE
:101D900001D0B14244D10780428041E0514507D192
:101DA000A0F808B0A0F80AE04FF42C5181810EE0B1
:101DB000A1F5C856633E06D0222101812021418130
:101DC000212181812CE02C210181448183810280A9
:101DD000458025E0A1F5D04CBCF1040C09D051455B
:101DE0000BD1A0F808B0A0F80AE04FF42C5383817F
:101DF00021E02C250581448109E0A1F5C85CBCF1F6
:101E0000630C12D022230381212343812023838169
:101E1000A1F5D043043B01D0B14201D102804780FB
:101E2000BDE8F04F002003F0A5BC4FF02C0CA0F84B
:101E300008C04381848105804280E9E77C05002059
:101E40002DE9F043414D91460C460246060AA98809
:101E50002846A1F5134340894FEA1428413B16D088
:101E6000A1F5A643103B12D0B3F5007313D02E4654
:101E7000A1F5C857B3793688B61A761E633F23D0CA
:101E8000A1F5D047043F3AD0012B4DD04DE003F0EF
:101E9000F2FE304639E003F0EEFE304603F0DFFE9E
:101EA0006889401C80B203F0E6FED0B203F0D7FE92
:101EB000A88903F0E0FE404603F0D1FEA889401C4B
:101EC00080B203F0D8FE2BE003B9B2B203F0D3FE28
:101ED000160A304603F0C3FED0B203F0C0FE30460F
:101EE00003F0BDFED0B203F0BAFEA88903F0C3FE32
:101EF000404603F0B4FEE0B203F0B1FE0DE0012B6A
:101F000000D1B2B203F0B7FE100A03F0A8FED0B2BF
:101F100003F0A5FEA88903F0AEFE404603F09FFE45
:101F2000E0B203F09CFE07E0B2B2114603F0BAFE45
:101F3000A889214603F0B6FE4FF0D840298920F841
:101F40007E1FA0F80290BDE8F08300007C05002011
:101F50002DE9F843204D1F468046AB88089EA3F527
:101F6000D040043802D1A879012807D0A2EB08009C
:101F7000401C85B20C464FF0D84929E02B88084612
:101F8000991A0024AC713A462A24A3EB08036C8109
:101F90002B27491E5B1EAF8189B29BB20096FFF7CB
:101FA000D7FF0120A8716F81AC81BDE8F88321467D
:101FB000404603F0E1FC03F06BFE0020494603E0DD
:101FC000A1F88060401C80B2A842F9D3641CA4B27E
:101FD000BC42ECD9E9E700007C0500202DE9F04F78
:101FE000A1B0002401217A201F9404F04FFC0121AC
:101FF000084604F057FC4FF40040009001208DF893
:1020000004008DF8064002208DF8050001208DF8AF
:1020100007006946FE48FFF7FFFC4CF23370009062
:1020200002208DF804008DF8064003208DF805008D
:1020300001208DF807006946F648FFF7EDFC4FF6E2
:102040008070009002208DF804008DF80640032077
:102050008DF805000120F04D8DF8070069462846EF
:10206000FFF7DAFCA814009002208DF804008DF828
:10207000064003208DF805000120E84E8DF807008A
:1020800069463046FFF7C8FCA814009002208DF87E
:1020900004008DF8064003208DF805000120E04F74
:1020A0008DF8070069463846FFF7B6FC0C22002180
:1020B000D848FFF7EDFC0C220121D648FFF7E8FCD9
:1020C0000C220421D348FFF7E3FC0C220521D14860
:1020D000FFF7DEFC0C220821CE48FFF7D9FC0C22CA
:1020E0000921CC48FFF7D4FC0C220A21C948FFF78C
:1020F000CFFC0C220E21C748FFF7CAFC0C220F218F
:10210000C448FFF7C5FC0C2207212846FFF7C0FC96
:102110000C2208212846FFF7BBFC0C220921284687
:10212000FFF7B6FC0C220A212846FFF7B1FC0C226F
:102130000B212846FFF7ACFC0C2211462846FFF77E
:10214000A7FC0C220D212846FFF7A2FC0C220E2131
:102150002846FFF79DFC0C220F212846FFF798FC2C
:102160000C2211463046FFF793FC0C2211463846EC
:10217000FFF78EFC0F20CDE911043C20CDE91304BC
:10218000159409201694CDE917400820CDE919408F
:102190001B941C940620CDE902041D941E9410206B
:1021A000CDE9044006940002CDE90A400894079462
:1021B0008000CDE90C40099411A8CDE90E4018A883
:1021C000109002A8FFF7C4FB01210620FFF7B0FB27
:1021D000322005F02BF90121002003F063FD3220AD
:1021E00005F024F9002003F092FA8E4A4FF0204ABD
:1021F0004FF6FF7B908049F2413545F2103645F2AB
:10220000105441F6631846F60407FF2804D35845D6
:1022100002D0B0F5134F74D1D32003F02CFD03F09E
:102220006CFA908003F069FA908003F066FA0BEA8A
:102230000020D946908003F060FA9188084390808E
:10224000A8425ED0BF2003F016FD03F056FA90803E
:1022500003F053FA908003F050FA908003F04DFAA7
:1022600009EA0020908003F048FA918808439080A2
:10227000B84246D0D42003F0FEFC03F03EFA908032
:1022800003F03BFA908003F038FA09EA00209080CE
:1022900003F033FA918808439080B04231D04FF474
:1022A0005A4003F0E8FC03F028FA90804FF45B40BA
:1022B00003F0E1FC03F021FA09EA002090804FF4DA
:1022C0005C4003F0D8FC03F018FA91880843908032
:1022D000B0F5004F39D0A04213D0A12003F0CBFCC1
:1022E00003F00BFA908003F008FA09EA00209080CE
:1022F00003F003FA91880843A0F5AE41908061395C
:1023000020D080B2A84205D0B04203D0A04201D074
:1023100040451CD1DAF81C11504621F00F01CAF8D3
:102320001C11DAF81C1121F47061CAF81C11DAF8DA
:102330001C1141F00301CAF81C11DAF81C1141F418
:10234000007121E0A2F80480E4E79480E2E7B8425B
:1023500003D0A0F54541053918D1DAF81C115046D3
:1023600021F00F01CAF81C11DAF81C1121F4706178
:10237000CAF81C11DAF81C1141F00A01CAF81C1144
:10238000DAF81C1141F44061C0F81C1191469188A3
:1023900025A0FDF7DDFFB9F80400A8427DD1CF20CC
:1023A00003F069FC002003F05AFCC12003F057FC45
:1023B000302003F054FCED2003F05DFC642003F0BA
:1023C0004EFC032003F04BFC122003F048FC81205C
:1023D00003F045FCE82003F04EFC852003F03FFCB1
:1023E000102003F03CFC7A2003F039FCCB2003F0F2
:1023F00042FC392003F033FC2C2003F030FC002099
:1024000003F02DFC342003F02AFC022014E000002D
:1024100000040240000C0240001002400014024080
:10242000001802407C050020204C43442049443AD7
:1024300025780D0A0000000003F011FCF72003F0DE
:102440001AFC202003F00BFCEA2003F014FC00200F
:1024500003F005FC002003F002FCC02003F00BFC9D
:102460001B2003F0FCFBC12003F005FC012003F05E
:10247000F6FBC52003F0FFFB302003F0F0FB30201B
:1024800003F0EDFBC72003F0F6FBB72003F0E7FBFA
:10249000362003F0F0FB482000E0A7E003F0DFFB6C
:1024A0003A2003F0E8FB552003F0D9FBB12003F0FC
:1024B000E2FB002003F0D3FB1A2003F0D0FBB62090
:1024C00003F0D9FB0A2003F0CAFBA22003F0C7FBEC
:1024D000F22003F0D0FB002003F0C1FB262003F024
:1024E000CAFB012003F0BBFBE02003F0C4FB0F207C
:1024F00003F0B5FB2A2003F0B2FB282003F0AFFB6A
:10250000082003F0ACFB0E2003F0A9FB082003F029
:10251000A6FB542003F0A3FBA92003F0A0FB43205B
:1025200003F09DFB0A2003F09AFB0F2003F097FBBA
:10253000002003F094FB002003F091FB002003F047
:102540008EFB002003F08BFBE12003F094FB0020C6
:1025500003F085FB152003F082FB172003F07FFBBF
:10256000072003F07CFB112003F079FB062003F029
:1025700076FB2B2003F073FB562003F070FB3C200E
:1025800003F06DFB052003F06AFB102003F067FBEE
:102590000F2003F064FB3F2003F061FB3F2003F0BA
:1025A0005EFB0F2003F05BFB2B2003F064FB00209D
:1025B00003F055FB002003F052FB012003F04FFB1A
:1025C0003F2003F04CFB2A2003F055FB002003F0D2
:1025D00046FB002003F043FB002003F040FBEF200C
:1025E00003F03DFB112003F046FBA5E0B8427CD18F
:1025F000112003F040FB142004F018FFD02003F05A
:102600003AFB072003F02BFB422003F028FB1D20A0
:1026100003F025FBD12003F02EFB002003F01FFB6D
:102620001A2003F01CFB092003F019FBD22003F051
:1026300022FB012003F013FB222003F010FBC0203B
:1026400003F019FB102003F00AFB3B2003F007FB0B
:10265000002003F004FB022003F001FB112003F033
:10266000FEFAC52003F007FB032003F0F8FAC820A8
:1026700003F001FB002003F0F2FA252003F0EFFA4B
:10268000212003F0ECFA052003F0E9FA002003F022
:10269000E6FA0A2003F0E3FA652003F0E0FA2520C9
:1026A00003F0DDFA772003F0DAFA502003F0D7FACE
:1026B0000F2003F0D4FA002003F0D1FAF82003F041
:1026C000DAFA012003F0CBFAFE2003F0D4FA00205E
:1026D00003F0C5FA022003F0C2FA202003F0CBFA7F
:1026E000362003F0C8FA082000E02BE003F0B7FA28
:1026F0003A2003F0C0FA552003F0B1FA2B2003F082
:10270000BAFA002003F0ABFA002003F0A8FA012087
:1027100003F0A5FA3F2003F0A2FA2A2003F0ABFA57
:10272000002003F09CFA002003F099FA012003F046
:1027300096FADF2003F093FA782004F077FE292040
:1027400001F0FBBEB0427CD1ED2003F094FA0120F1
:1027500003F085FAFE2003F082FAEE2003F08BFAF4
:10276000DE2003F07CFA212003F079FAF12003F057
:1027700082FA012003F073FADF2003F07CFA1020C4
:1027800003F06DFAC42003F076FA8F2003F067FAA5
:10279000C62003F070FA002003F061FAE22003F093
:1027A0005EFAE22003F05BFAE22003F058FABF2061
:1027B00003F061FAAA2003F052FAB02003F05BFAAA
:1027C0000D2003F04CFA002003F049FA0D2003F02D
:1027D00046FA002003F043FA112003F040FA0020EB
:1027E00003F03DFA192003F03AFA002003F037FA1B
:1027F000212003F034FA002003F031FA2D2003F0F9
:102800002EFA002003F02BFA3D2003F028FA0020D6
:1028100003F025FA5D2003F022FA002003F01FFAEE
:102820005D2003F01CFA002003F019FAB12003F038
:1028300022FA802003F013FA002003F010FA8B2014
:1028400000E0FCE303F00BFA002003F008FA962006
:1028500003F005FA002003F002FAB22003F00BFAAD
:10286000002003F0FCF9002003F0F9F9022003F046
:10287000F6F9002003F0F3F9032003F0F0F900204B
:1028800003F0EDF9B32003F0F6F9002003F0E7F9C7
:10289000002003F0E4F9002003F0E1F9002003F048
:1028A000DEF9002003F0DBF9002003F0D8F9002066
:1028B00003F0D5F9002003F0D2F9002003F0CFF99E
:1028C000002003F0CCF9002003F0C9F9002003F048
:1028D000C6F9002003F0C3F9002003F0C0F900207E
:1028E00003F0BDF9002003F0BAF9002003F0B7F9B6
:1028F000002003F0B4F9002003F0B1F9002003F048
:10290000AEF9002003F0ABF9002003F0A8F9002095
:1029100003F0A5F9002003F0A2F9B42003F0ABF90D
:102920008B2003F09CF9002003F099F9962003F026
:1029300096F9002003F093F9A12003F090F900200C
:1029400003F08DF9B52003F096F9022003F087F922
:10295000002003F084F9032003F081F9002003F044
:102960007EF9042003F07BF9002003F078F9B6200B
:1029700003F081F9002003F072F9002003F06FF9F1
:10298000B72003F078F9002003F069F9002003F084
:1029900066F93F2003F063F9002003F060F95E2040
:1029A00003F05DF9002003F05AF9642003F057F9B1
:1029B000002003F054F98C2003F051F9002003F0BB
:1029C0004EF9AC2003F04BF9002003F048F9DC206D
:1029D00003F045F9002003F042F9702003F03FF9BD
:1029E000002003F03CF9902003F039F9002003F0B7
:1029F00036F9EB2003F033F9002003F030F9DC2046
:102A000003F02DF9002003F02AF9B82003F033F980
:102A1000002003F024F9002003F021F9002003F046
:102A20001EF9002003F01BF9002003F018F9002024
:102A300003F015F9002003F012F9002003F00FF95C
:102A4000BA2003F018F9242003F009F9002003F05C
:102A500006F9002003F003F9002003F000F9C1207B
:102A600003F009F9202003F0FAF8002003F0F7F84A
:102A7000542003F0F4F8002003F0F1F8FF2003F0F5
:102A8000EEF8002003F0EBF8C22003F0F4F80A207F
:102A900003F0E5F8002003F0E2F8042003F0DFF88B
:102AA000002003F0DCF8C32003F0E5F83C2003F03D
:102AB000D6F8002003F0D3F83A2003F0D0F8002035
:102AC00003F0CDF8392003F0CAF8002003F0C7F86E
:102AD000372003F0C4F8002003F0C1F83C2003F0D5
:102AE000BEF8002003F0BBF8362003F0B8F8002051
:102AF00003F0B5F8322003F0B2F8002003F0AFF88D
:102B00002F2003F0ACF8002003F0A9F82C2003F0EC
:102B1000A6F8002003F0A3F8292003F0A0F8002075
:102B200003F09DF8262003F09AF8002003F097F8B0
:102B3000242003F094F8002003F091F8242003F0FF
:102B40008EF8002003F08BF8232003F088F8002093
:102B500003F085F83C2003F082F8002003F07FF8B2
:102B6000362003F07CF8002003F079F8322003F0DF
:102B700076F8002003F073F82F2003F070F800209F
:102B800003F06DF82C2003F06AF8002003F067F8DA
:102B9000292003F064F8002003F061F8262003F0F8
:102BA0005EF8002003F05BF8242003F058F80020C2
:102BB00003F055F8242003F052F8002003F04FF8FA
:102BC000232003F04CF8002003F049F8C42003F060
:102BD00052F8622003F043F8002003F040F805208B
:102BE00003F03DF8002003F03AF8842003F037F8B2
:102BF000002003F034F8F02003F031F8002003F057
:102C00002EF8182003F02BF8002003F028F8A42059
:102C100003F025F8002003F022F8182003F01FF835
:102C2000002003F01CF8502003F019F8002003F0F6
:102C300016F80C2003F013F8002003F010F817200A
:102C400003F00DF8002003F00AF8952003F007F8D0
:102C5000002003F004F8F32003F001F8002002F054
:102C6000FEFFE62002F0FBFF002002F0F8FFC52087
:102C700003F001F8322002F0F2FF002002F0EFFF33
:102C8000442002F0ECFF002002F0E9FF652002F092
:102C9000E6FF002002F0E3FF762002F0E0FF0020D4
:102CA00002F0DDFF882002F0DAFF002002F0D7FFFB
:102CB000C62002F0E0FF202002F0D1FF002002F049
:102CC000CEFF172002F0CBFF002002F0C8FF01204A
:102CD00002F0C5FF002002F0C2FFC72002F0CBFFC8
:102CE000002002F0BCFF002002F0B9FF002002F03B
:102CF000B6FF002002F0B3FFC82002F0BCFF0020A6
:102D000002F0ADFF002002F0AAFF002002F0A7FFB2
:102D1000002002F0A4FFC92002F0ADFF002002F065
:102D20009EFF002002F09BFF002002F098FF002091
:102D300002F095FF002002F092FF002002F08FFFCA
:102D4000002002F08CFF002002F089FF002002F03A
:102D500086FF002002F083FF002002F080FF0020A9
:102D600002F07DFF002002F07AFF002002F077FFE2
:102D7000002002F074FF002002F071FFE02002F05A
:102D80007AFF162002F06BFF002002F068FF1C2083
:102D900002F065FF002002F062FF212002F05FFFD9
:102DA000002002F05CFF362002F059FF002002F004
:102DB00056FF462002F053FF002002F050FF522041
:102DC00002F04DFF002002F04AFF642002F047FFAE
:102DD000002002F044FF7A2002F041FF002002F0C0
:102DE0003EFF8B2002F03BFF002002F038FF9920CD
:102DF00002F035FF002002F032FFA82002F02FFF82
:102E0000002002F02CFFB92002F029FF002002F080
:102E100026FFC42002F023FF002002F020FFCA207A
:102E200002F01DFF002002F01AFFD22002F017FF6F
:102E3000002002F014FFD92002F011FF002002F060
:102E40000EFFE02002F00BFF002002F008FFF3204D
:102E500002F005FF002002F002FFE12002F00BFF6C
:102E6000162002F0FCFE002002F0F9FE1C2002F009
:102E7000F6FE002002F0F3FE222002F0F0FE002019
:102E800002F0EDFE362002F0EAFE002002F0E7FE3E
:102E9000452002F0E4FE002002F0E1FE522002F0A4
:102EA000DEFE002002F0DBFE642002F0D8FE0020EF
:102EB00002F0D5FE7A2002F0D2FE002002F0CFFE12
:102EC0008B2002F0CCFE002002F0C9FE992002F017
:102ED000C6FE002002F0C3FEA82002F0C0FE0020C3
:102EE00002F0BDFEB92002F0BAFE002002F0B7FEEB
:102EF000C42002F0B4FE002002F0B1FECA2002F0AD
:102F0000AEFE002002F0ABFED22002F0A8FE0020B0
:102F100002F0A5FED82002F0A2FE002002F09FFEE3
:102F2000E02002F09CFE002002F099FEF32002F067
:102F300096FE002002F093FEE22002F09CFE0520A7
:102F400002F08DFE002002F08AFE0B2002F087FEC8
:102F5000002002F084FE1B2002F081FE002002F01F
:102F60007EFE342002F07BFE002002F078FE44203A
:102F700002F075FE002002F072FE4F2002F06FFE9C
:102F8000002002F06CFE612002F069FE002002F0D9
:102F900066FE792002F063FE002002F060FE8820C9
:102FA00002F05DFE002002F05AFE972002F057FE6C
:102FB000002002F054FEA62002F051FE002002F094
:102FC0004EFEB72002F04BFE002002F048FEC22069
:102FD00002F045FE002002F042FEC72002F03FFE54
:102FE000002002F03CFED12002F039FE002002F069
:102FF00036FED62002F033FE002002F030FEDD2047
:1030000002F02DFE002002F02AFEF32002F027FE3F
:10301000002002F024FEE32002F02DFE052002F045
:103020001EFE002002F01BFE0A2002F018FE002007
:1030300002F015FE1C2002F012FE002000E0FDE26E
:1030400002F00DFE332002F00AFE002002F007FE1F
:10305000442002F004FE002002F001FE502002F0A5
:10306000FEFD002002F0FBFD622002F0F8FD0020D2
:1030700002F0F5FD782002F0F2FD002002F0EFFDF5
:10308000882002F0ECFD002002F0E9FD972002F01C
:10309000E6FD002002F0E3FDA62002F0E0FD0020A6
:1030A00002F0DDFDB72002F0DAFD002002F0D7FDCE
:1030B000C22002F0D4FD002002F0D1FDC72002F0B2
:1030C000CEFD002002F0CBFDD12002F0C8FD002093
:1030D00002F0C5FDD52002F0C2FD002002F0BFFDC8
:1030E000DD2002F0BCFD002002F0B9FDF32002F06B
:1030F000B6FD002002F0B3FDE42002F0BCFD01208B
:1031000002F0ADFD002002F0AAFD012002F0A7FDB3
:10311000002002F0A4FD022002F0A1FD002002F038
:103120009EFD2A2002F09BFD002002F098FD3C202D
:1031300002F095FD002002F092FD4B2002F08FFD81
:10314000002002F08CFD5D2002F089FD002002F0DD
:1031500086FD742002F083FD002002F080FD8420B3
:1031600002F07DFD002002F07AFD932002F077FD51
:10317000002002F074FDA22002F071FD002002F098
:103180006EFDB32002F06BFD002002F068FDBE2052
:1031900002F065FD002002F062FDC42002F05FFD38
:1031A000002002F05CFDCD2002F059FD002002F06D
:1031B00056FDD32002F053FD002002F050FDDD202B
:1031C00002F04DFD002002F04AFDF32002F047FD21
:1031D000002002F044FDE52002F04DFD002002F049
:1031E0003EFD002002F03BFD002002F038FD0020F3
:1031F00002F035FD022002F032FD002002F02FFD2A
:10320000292002F02CFD002002F029FD3C2002F0D4
:1032100026FD002002F023FD4B2002F020FD0020BF
:1032200002F01DFD5D2002F01AFD002002F017FDE6
:10323000742002F014FD002002F011FD842002F041
:103240000EFD002002F00BFD932002F008FD00208F
:1032500002F005FDA22002F002FD002002F0FFFCBA
:10326000B32002F0FCFC002002F0F9FCBE2002F0CA
:10327000F6FC002002F0F3FCC42002F0F0FC002079
:1032800002F0EDFCCD2002F0EAFC002002F0E7FCA9
:10329000D32002F0E4FC002002F0E1FCDC2002F08C
:1032A000DEFC002002F0DBFCF32002F0D8FC002062
:1032B00002F0D5FCE62002F0DEFC112002F0CFFC8B
:1032C000002002F0CCFC342002F0C9FC002002F007
:1032D000C6FC562002F0C3FC002002F0C0FC7620A1
:1032E00002F0BDFC002002F0BAFC772002F0B7FC2F
:1032F000002002F0B4FC662002F0B1FC002002F0D5
:10330000AEFC882002F0ABFC002002F0A8FC992063
:1033100002F0A5FC002002F0A2FCBB2002F09FFC02
:10332000002002F09CFC992002F099FC002002F0A1
:1033300096FC662002F093FC002002F090FC5520E1
:1033400002F08DFC002002F08AFC552002F087FC80
:10335000002002F084FC452002F081FC002002F0F5
:103360007EFC432002F07BFC002002F078FC44202D
:1033700002F075FC002002F072FCE72002F07BFCFA
:10338000322002F06CFC002002F069FC552002F0B3
:1033900066FC002002F063FC762002F060FC002056
:1033A00002F05DFC662002F05AFC002002F057FC9F
:1033B000672002F054FC002002F051FC672002F06C
:1033C0004EFC002002F04BFC872002F048FC00205D
:1033D00002F045FC992002F042FC002002F03FFC84
:1033E000BB2002F03CFC002002F039FC992002F0E6
:1033F00036FC002002F033FC772002F030FC002085
:1034000002F02DFC442002F02AFC002002F027FCF0
:10341000562002F024FC002002F021FC232002F0C0
:103420001EFC002002F01BFC332002F018FC0020E0
:1034300002F015FC452002F012FC002002F00FFC07
:10344000E82002F018FC002002F009FC002002F045
:1034500006FC992002F003FC002002F000FC87200B
:1034600002F0FDFB002002F0FAFB882002F0F7FBDF
:10347000002002F0F4FB772002F0F1FB002002F0C4
:10348000EEFB662002F0EBFB002002F0E8FB882058
:1034900002F0E5FB002002F0E2FBAA2002F0DFFBD5
:1034A000002002F0DCFBBB2002F0D9FB002002F080
:1034B000D6FB992002F0D3FB002002F0D0FB66205F
:1034C00002F0CDFB002002F0CAFB552002F0C7FB42
:1034D000002002F0C4FB552002F0C1FB002002F0E6
:1034E000BEFB442002F0BBFB002002F0B8FB4420EE
:1034F00002F0B5FB002002F0B2FB552002F0AFFB5A
:10350000002002F0ACFBE92002F0B5FBAA2002F09B
:10351000A6FB002002F0A3FB002002F0A0FB00208D
:1035200002F09DFB002002F0A6FBAA2002F097FB10
:10353000CF2002F0A0FB002002F091FB002002F05F
:103540008EFB002002F08BFB002002F088FB0020A5
:1035500002F085FB002002F082FB002002F07FFBDE
:10356000002002F07CFB002002F079FB002002F03A
:1035700076FB002002F073FB002002F070FB0020BD
:1035800002F06DFB002002F06AFB002002F067FBF6
:10359000002002F064FB002002F061FBF02002F04A
:1035A0006AFB002002F05BFB502002F058FB002079
:1035B00002F055FB002002F052FB002002F04FFB0E
:1035C000F32002F058FB002002F049FBF92002F042
:1035D00052FB062002F043FB102002F040FB2920A2
:1035E00002F03DFB002002F03AFB3A2002F043FBE0
:1035F000552002F034FB112002F03DFB642003F063
:1036000015FF292002F037FB352002F034FB0020A3
:1036100002F025FB512002F02EFBFF2002F01FFBE1
:10362000532002F028FB2C2002F019FB552002F059
:1036300022FB822002F013FB2C20FCE3A0427DD170
:103640004FF470435521184602F02CFB4FF2010451
:10365000AA21204602F026FB651C5221284602F0D2
:1036600021FBA61C0821304602F01CFBE71C0121AF
:10367000384602F017FB0D214FF4304002F012FBE8
:103680000D214BF2010002F00DFB0D214BF2020067
:1036900002F008FB4FF436483421404602F002FBAA
:1036A00034214BF2016002F0FDFA34214BF202604A
:1036B00002F0F8FA4FF431490D21484602F0F2FACF
:1036C0004BF2011A0D21504602F0ECFA0D214BF29B
:1036D000021002F0E7FA34214FF4374002F0E2FA28
:1036E00034214BF2017002F0DDFA34214BF202700A
:1036F00002F0D8FA00214FF4324002F0D3FA002150
:103700004BF2012002F0CEFA00214BF2022002F02F
:10371000C9FA24214FF4384002F0C4FA24214BF6B0
:10372000010002F0BFFA24214BF6020002F0BAFABF
:1037300001214FF43F4002F0B5FA00E0FEE30F2113
:103740004FF4334002F0AEFA0F214BF2013002F099
:10375000A9FA0F214BF2023002F0A4FA34214FF4FF
:10376000394002F09FFA34214BF6011002F09AFA28
:1037700034214BF6021002F095FA08214FF435403F
:1037800002F090FA08214BF2015002F08BFA082166
:103790004BF2025002F086FA03214FF4424002F04D
:1037A00081FA24214FF43A4002F07CFA24214BF6AE
:1037B000012002F077FA24214BF6022002F072FA7F
:1037C00000214FF43C4002F06DFA78214BF60140A5
:1037D00002F068FA00214BF6024002F063FA002181
:1037E0004FF43D4002F05EFA78214BF6015002F0B2
:1037F00059FA00214BF6025002F054FA00214FF41E
:103800003E4002F04FFA64214BF6016002F04AFAA2
:1038100000214FF4514002F045FA33214DF20110DE
:1038200002F040FA00214DF2021002F03BFA34217E
:103830004DF2031002F036FA00214DF2041002F0AE
:1038400031FA3A214DF2051002F02CFA00214DF226
:10385000061002F027FA4A214DF2071002F022FA70
:1038600000214DF2081002F01DFA5C214DF2091002
:1038700002F018FA00214DF20A1002F013FA812129
:103880004DF20B1002F00EFA00214DF20C1002F076
:1038900009FAA6214DF20D1002F004FA00214DF2B2
:1038A0000E1002F0FFF9E5214DF20F1002F0FAF9C7
:1038B00001214DF2101002F0F5F913214DF2111013
:1038C00002F0F0F901214DF2121002F0EBF954214F
:1038D0004DF2131002F0E6F901214DF2141002F03E
:1038E000E1F982214DF2151002F0DCF901214DF2CF
:1038F000161002F0D7F9CA214DF2171002F0D2F9D2
:1039000002214DF2181002F0CDF900214DF21910EC
:1039100002F0C8F902214DF21A1002F0C3F9012198
:103920004DF21B1002F0BEF902214DF21C1002F004
:10393000B9F934214DF21D1002F0B4F902214DF213
:103940001E1002F0AFF967214DF21F1002F0AAF924
:1039500002214DF2201002F0A5F984214DF2211030
:1039600002F0A0F902214DF2221002F09BF9A421ED
:103970004DF2231002F096F902214DF2241002F0CC
:1039800091F9B7214DF2251002F08CF902214DF288
:10399000261002F087F9CF214DF2271002F082F9AC
:1039A00002214DF2281002F07DF9DE214DF229109E
:1039B00002F078F902214DF22A1002F073F9F22197
:1039C0004DF22B1002F06EF902214DF22C1002F094
:1039D00069F9FE214DF22D1002F064F903214DF238
:1039E0002E1002F05FF910214DF22F1002F05AF95B
:1039F00003214DF2301002F055F933214DF2311010
:103A000002F050F903214DF2321002F04BF96D2112
:103A10004DF2331002F046F900214FF4524002F00B
:103A200041F933214DF2012002F03CF900214DF221
:103A3000022002F037F934214DF2032002F032F96E
:103A400000214DF2042002F02DF93A214DF205201B
:103A500002F028F900214DF2062002F023F94A2154
:103A60004DF2072002F01EF900214DF2082002F06D
:103A700019F95C214DF2092002F014F900214DF2F0
:103A80000A2002F00FF981214DF20B2002F00AF911
:103A900000214DF20C2002F005F9A6214DF20D2077
:103AA00002F000F900214DF20E2002F0FBF8E521B2
:103AB0004DF20F2002F0F6F801214DF2102002F035
:103AC000F1F813214DF2112002F0ECF801214DF232
:103AD000122002F0E7F854214DF2132002F0E2F830
:103AE00001214DF2142002F0DDF882214DF2152063
:103AF00002F0D8F801214DF2162002F0D3F8CA21C5
:103B00004DF2172002F0CEF802214DF2182002F0FB
:103B1000C9F800214DF2192002F0C4F802214DF23B
:103B20001A2002F0BFF801214DF21B2002F0BAF872
:103B300002214DF21C2002F0B5F834214DF21D2077
:103B400002F0B0F802214DF21E2002F0ABF867211E
:103B50004DF21F2002F0A6F802214DF2202002F0C3
:103B6000A1F884214DF2212002F09CF802214DF2AF
:103B7000222002F097F8A4214DF2232002F092F8BF
:103B800002214DF2242002F08DF8B7214DF22520BC
:103B900002F088F802214DF2262002F083F8CF21AE
:103BA0004DF2272002F07EF802214DF2282002F08B
:103BB00079F8DE214DF2292002F074F802214DF24D
:103BC0002A2002F06FF8F2214DF22B2002F06AF861
:103BD00002214DF22C2002F065F8FE214DF22D203D
:103BE00002F060F803214DF22E2002F05BF8102164
:103BF0004DF22F2002F056F803214DF2302002F052
:103C000051F833214DF2312002F04CF803214DF2EE
:103C1000322002F047F86D214DF2332002F042F8D5
:103C200000214FF4534002F03DF833214DF20130B2
:103C300002F038F800214DF2023002F033F834215E
:103C40004DF2033002F02EF800214DF2043002F064
:103C500029F83A214DF2053002F024F800214DF206
:103C6000063002F01FF84A214DF2073002F01AF830
:103C700000214DF2083002F015F85C214DF20930B8
:103C800002F010F800214DF20A3002F00BF8812109
:103C90004DF20B3002F006F800214DF20C3002F02C
:103CA00001F8A6214DF20D3001F0FCFF00214DF28C
:103CB0000E3001F0F7FFE5214DF20F3001F0F2FF79
:103CC00001214DF2103001F0EDFF13214DF21130C2
:103CD00001F0E8FF01214DF2123001F0E3FF542121
:103CE0004DF2133001F0DEFF01214DF2143001F0EE
:103CF000D9FF82214DF2153001F0D4FF01214DF2A0
:103D0000163001F0CFFFCA214DF2173001F0CAFF83
:103D100002214DF2183001F0C5FF00214DF219309B
:103D200001F0C0FF02214DF21A3001F0BBFF01216A
:103D30004DF21B3001F0B6FF02214DF21C3001F0B4
:103D4000B1FF34214DF21D3001F0ACFF02214DF2E4
:103D50001E3001F0A7FF67214DF21F3001F0A2FFD6
:103D600002214DF2203001F09DFF84214DF22130DF
:103D700001F098FF02214DF2223001F093FFA421BF
:103D80004DF2233001F08EFF02214DF2243001F07C
:103D900089FFB7214DF2253001F084FF02214DF259
:103DA000263001F07FFFCF214DF2273001F07AFF5E
:103DB00002214DF2283001F075FFDE214DF229304D
:103DC00001F070FF02214DF22A3001F06BFFF22169
:103DD0004DF22B3001F066FF02214DF22C3001F044
:103DE00061FFFE214DF22D3001F05CFF03214DF209
:103DF0002E3001F057FF10214DF22F3001F052FF0D
:103E000003214DF2303001F04DFF33214DF23130BE
:103E100001F048FF03214DF2323001F043FF6D21E4
:103E20004DF2333001F03EFF00214FF4544001F0D9
:103E300039FF332100E080E34DF2014001F032FF11
:103E400000214DF2024001F02DFF34214DF20340DC
:103E500001F028FF00214DF2044001F023FF3A2138
:103E60004DF2054001F01EFF00214DF2064001F029
:103E700019FF4A214DF2074001F014FF00214DF2D5
:103E8000084001F00FFF5C214DF2094001F00AFFEC
:103E900000214DF20A4001F005FF81214DF20B4057
:103EA00001F000FF00214DF20C4001F0FBFEA621C5
:103EB0004DF20D4001F0F6FE00214DF20E4001F0F2
:103EC000F1FEE5214DF20F4001F0ECFE01214DF233
:103ED000104001F0E7FE13214DF2114001F0E2FE27
:103EE00001214DF2124001F0DDFE54214DF213404C
:103EF00001F0D8FE01214DF2144001F0D3FE8221E1
:103F00004DF2154001F0CEFE01214DF2164001F0B8
:103F1000C9FECA214DF2174001F0C4FE02214DF244
:103F2000184001F0BFFE00214DF2194001F0BAFE29
:103F300002214DF21A4001F0B5FE00E000E301213C
:103F40004DF21B4001F0AEFE02214DF21C4001F08B
:103F5000A9FE34214DF21D4001F0A4FE02214DF2D4
:103F60001E4001F09FFE67214DF21F4001F09AFEB6
:103F700002214DF2204001F095FE84214DF22140B6
:103F800001F090FE02214DF2224001F08BFEA421AF
:103F90004DF2234001F086FE02214DF2244001F053
:103FA00081FEB7214DF2254001F07CFE02214DF249
:103FB000264001F077FECF214DF2274001F072FE3E
:103FC00002214DF2284001F06DFEDE214DF2294024
:103FD00001F068FE02214DF22A4001F063FEF22159
:103FE0004DF22B4001F05EFE02214DF22C4001F01B
:103FF00059FEFE214DF22D4001F054FE03214DF2F9
:104000002E4001F04FFE10214DF22F4001F04AFEEC
:1040100003214DF2304001F045FE33214DF2314095
:1040200001F040FE03214DF2324001F03BFE6D21D4
:104030004DF2334001F036FE00214FF4554001F0BF
:1040400031FE33214DF2015001F02CFE00214DF2E2
:10405000025001F027FE34214DF2035001F022FE00
:1040600000214DF2045001F01DFE3A214DF20550A1
:1040700001F018FE00214DF2065001F013FE4A2116
:104080004DF2075001F00EFE00214DF2085001F0F4
:1040900009FE5C214DF2095001F004FE00214DF2B1
:1040A0000A5001F0FFFD81214DF20B5001F0FAFDA5
:1040B00000214DF20C5001F0F5FDA6214DF20D50FE
:1040C00001F0F0FD00214DF20E5001F0EBFDE52175
:1040D0004DF20F5001F0E6FD01214DF2105001F0BC
:1040E000E1FD13214DF2115001F0DCFD01214DF2F3
:1040F000125001F0D7FD54214DF2135001F0D2FDC2
:1041000001214DF2145001F0CDFD82214DF21550E8
:1041100001F0C8FD01214DF2165001F0C3FDCA2186
:104120004DF2175001F0BEFD02214DF2185001F082
:10413000B9FD00214DF2195001F0B4FD02214DF2FC
:104140001A5001F0AFFD01214DF21B5001F0AAFD04
:1041500002214DF21C5001F0A5FD34214DF21D50FD
:1041600001F0A0FD02214DF21E5001F09BFD6721E0
:104170004DF21F5001F096FD02214DF2205001F04A
:1041800091FD84214DF2215001F08CFD02214DF270
:10419000225001F087FDA4214DF2235001F082FD51
:1041A00002214DF2245001F07DFDB7214DF2255042
:1041B00001F078FD02214DF2265001F073FDCF2170
:1041C0004DF2275001F06EFD02214DF2285001F012
:1041D00069FDDE214DF2295001F064FD02214DF20E
:1041E0002A5001F05FFDF2214DF22B5001F05AFDF3
:1041F00002214DF22C5001F055FDFE214DF22D50C3
:1042000001F050FD03214DF22E5001F04BFD102125
:104210004DF22F5001F046FD03214DF2305001F0D8
:1042200041FD33214DF2315001F03CFD03214DF2AF
:10423000325001F037FD6D214DF2335001F032FD67
:1042400000214FF4564001F02DFD33214DF2016065
:1042500001F028FD00214DF2026001F023FD342120
:104260004DF2036001F01EFD00214DF2046001F0EB
:1042700019FD3A214DF2056001F014FD00214DF2C7
:10428000066001F00FFD4A214DF2076001F00AFDC2
:1042900000214DF2086001F005FD5C214DF209603E
:1042A00001F000FD00214DF20A6001F0FBFC8121CC
:1042B0004DF20B6001F0F6FC00214DF20C6001F0B4
:1042C000F1FCA6214DF20D6001F0ECFC00214DF255
:1042D0000E6001F0E7FCE5214DF20F6001F0E2FC19
:1042E00001214DF2106001F0DDFC13214DF211604F
:1042F00001F0D8FC01214DF2126001F0D3FC5421F1
:104300004DF2136001F0CEFC01214DF2146001F07A
:10431000C9FC82214DF2156001F0C4FC01214DF26F
:10432000166001F0BFFCCA214DF2176001F0BAFC23
:1043300002214DF2186001F0B5FC00214DF2196028
:1043400001F0B0FC02214DF21A6001F0ABFC01213A
:104350004DF21B6001F0A6FC02214DF21C6001F041
:10436000A1FC34214DF21D6001F09CFC02214DF2B4
:104370001E6001F097FC67214DF21F6001F092FC76
:1043800002214DF2206001F08DFC84214DF221606C
:1043900001F088FC02214DF2226001F083FCA4218F
:1043A0004DF2236001F07EFC02214DF2246001F009
:1043B00079FCB7214DF2256001F074FC02214DF229
:1043C000266001F06FFCCF214DF2276001F06AFCFE
:1043D00002214DF2286001F065FCDE214DF22960DA
:1043E00001F060FC02214DF22A6001F05BFCF22139
:1043F0004DF22B6001F056FC02214DF22C6001F0D1
:1044000051FCFE214DF22D6001F04CFC03214DF2D8
:104410002E6001F047FC10214DF22F6001F042FCAC
:1044200003214DF2306001F03DFC33214DF231604B
:1044300001F038FC03214DF2326001F033FC6D21B4
:104440004DF2336001F02EFC5521184601F02AFC94
:10445000AA21204601F026FC5221284601F022FC28
:104460000821304601F01EFC0021384601F01AFCFC
:10447000CC21484601F016FC0021504601F012FC08
:104480000521404601F00EFC70214FF4374001F049
:1044900009FC70214BF2017001F004FC01214FF482
:1044A000384001F0FFFB03214BF6010001F0FAFB5D
:1044B00003214BF6020001F0F5FB03214BF603004C
:1044C00001F0F0FB02214FF43C4001F0EBFB002136
:1044D0004BF6014001F0E6FB00214BF6024001F0F3
:1044E000E1FBD0214FF4494001F0DCFB02214CF606
:1044F000011001F0D7FB50214CF6021001F0D2FB65
:1045000050214CF6031001F0CDFB50214CF6041065
:1045100001F0C8FB00214FF4545001F0C3FB5521BA
:104520004FF4685001F0BEFB4FF4885001F0A3FB3C
:10453000782002F097FF4FF4245001F09CFBF3E049
:10454000A0F513414FF480744FF4E06940F2022A61
:104550004FF4274625397CD040F20775C91E79D023
:104560004FF488774FF41C56083174D0113973D04A
:10457000A0F5A841083970D0A0F5A8514FF44077B4
:1045800005396BD0B1F5204169D0B1F5805167D0C4
:10459000A0F58A4131397CD0091F7BD04045CED16E
:1045A000E22001F068FB1D2001F059FB022001F020
:1045B00056FB042001F053FB642002F053FFE0207F
:1045C00001F059FB012001F04AFB0A2002F02EFF06
:1045D000E02001F050FB032001F041FB0C2002F031
:1045E00025FF012001F047FB0A2002F01FFFE62013
:1045F00001F041FB2F2001F032FBFF2001F02FFBE7
:10460000FF2001F02CFBB02001F035FB202001F051
:1046100026FB002001F023FB032001F020FB40F2E9
:104620001F3001F01CFB012001F019FB40F2DF10EC
:1046300001F015FB002001F012FBB42001F01BFB80
:10464000042001F00CFB40F21F4001F008FB0020A9
:1046500007E076E041E1F9E1A0E275E3FEE3FEE385
:10466000FEE301F0FCFA2E2001F0F9FA002001F03F
:10467000F6FA002001F0F3FA002001F0F0FA002031
:1046800001F0EDFAB62001F0F6FA022001F0E7FAA7
:1046900001E0E6E3E6E34FF4037001F0E0FA002006
:1046A00001F0DDFA172001F0DAFA152001F0D7FA4F
:1046B000002001F0D4FA002001F0D1FAF02001F03E
:1046C000DAFA032001F0CBFA292001F0D4FAD02045
:1046D00001F0D1FA002001F0C2FABE2001F0CBFABD
:1046E000052001F0BCFAFE2001F0B9FA012001F02A
:1046F000B6FA002001F0B3FA002001F0B0FA002071
:1047000001F0ADFAB82001F0B6FA032001F0A7FAE3
:10471000012001F0A4FABA2001F0ADFA012001F065
:104720009EFA642000F0FEFF0020FDF7EFFAFF493B
:104730000120C1F8BC025846FDF7B2FA21B0BDE82D
:10474000F08F47F6F001E52001F0ACFA2146012098
:1047500001F0A8FA4946022001F0A4FA41F2300122
:10476000032001F09FFA0021042001F09BFA51463A
:10477000082001F097FA0021092001F093FA0021A6
:104780000A2001F08FFA00210C2001F08BFA0021A1
:104790000D2001F087FA00210F2001F083FA00219B
:1047A000102001F07FFA0721112001F07BFA00218F
:1047B000122001F077FA0021132001F073FA002192
:1047C000072001F06FFA41F29061102001F06AFABF
:1047D00040F22721112001F065FA9D21122001F0FD
:1047E00061FA4FF4C851132001F05CFA2521292009
:1047F00001F058FA0D212B2001F054FA0721302046
:1048000001F050FA40F20331312001F04BFA03215C
:10481000322001F047FA40F20621352001F042FA39
:104820000821362001F03EFA40F20641372001F01F
:1048300039FA4FF44171382001F034FA0721392058
:1048400001F030FA40F202613C2001F02BFA08211D
:104850003D2001F027FA0021502001F023FAEF213A
:10486000512001F01FFA0021522001F01BFA40F202
:104870003F11532001F016FA3146602001F012FA80
:104880000121612001F00EFA00216A2001F00AFAEC
:104890000021802001F006FA0021812001F002FAB7
:1048A0000021822001F0FEF90021832001F0FAF9B5
:1048B0000021842001F0F6F90021852001F0F2F9B1
:1048C0001021902001F0EEF94FF4C061922001F028
:1048D000E9F940F233110720FEE341F28F01EC20A9
:1048E00001F0E0F941F23421EF2001F0DBF921463B
:1048F000012001F0D7F94946022001F0D3F941F235
:104900003001032001F0CEF90021042001F0CAF9A2
:104910005146082001F0C6F90021092001F0C2F932
:1049200000210A2001F0BEF901210C2001F0BAF9A2
:1049300000210D2001F0B6F900210F2001F0B2F99D
:104940000021102001F0AEF90721112001F0AAF991
:104950000021122001F0A6F90021132001F0A2F994
:104960000121072001F09EF9322002F05FFD41F2A3
:104970009041102001F096F940F22721112001F01A
:1049800091F9322002F052FD8A21122001F08AF9B9
:10499000322002F04BFD4FF4D051132001F082F988
:1049A0000621292001F07EF90D212B2001F07AF952
:1049B000322002F03BFD0021202001F073F900219C
:1049C000212001F06FF9322002F030FD002130206B
:1049D00001F068F940F20461312001F063F940F21E
:1049E0000531322001F05EF90021352001F05AF93D
:1049F00040F60941362001F055F94FF40171372096
:104A000001F050F940F20131382001F04BF929460C
:104A1000392001F047F900213C2001F043F940F62C
:104A20000A213D2001F03EF9322002F0FFFC002176
:104A3000502001F037F9EF21512001F033F9002126
:104A4000522001F02FF940F23F114EE100210846BB
:104A500001F028F92146012001F024F949460220FD
:104A600001F020F941F23001032001F01BF900218F
:104A7000042001F017F95146082001F013F9002134
:104A8000092001F00FF900210A2001F00BF90121A2
:104A90000C2001F007F900210D2001F003F900219D
:104AA0000F2001F0FFF8322002F0C0FC40F20111AB
:104AB000072001F0F7F8322002F0B8FC4FF48651DD
:104AC000102001F0EFF80721112001F0EBF8394632
:104AD000122001F0E7F84FF43061132001F0E2F802
:104AE0000021292001F0DEF844F210012B2001F012
:104AF000D9F80021502001F0D5F8EF21512001F024
:104B0000D1F80021522001F0CDF840F23F1153209E
:104B100001F0C8F83146602001F0C4F8012161209D
:104B200001F0C0F800216A2002E00000008040424D
:104B300001F0B8F80021802001F0B4F800218120B4
:104B400001F0B0F80021822001F0ACF800218320B0
:104B500001F0A8F80021842001F0A4F800218520AC
:104B600001F0A0F81021902001F09CF80021922083
:104B700001F098F80121932001F094F8394695202E
:104B800001F090F80021972001F08CF80021982086
:104B900001F088F840F27311072080E341F214011C
:104BA000E72001F07FF82146012001F07BF84FF467
:104BB0000071022001F076F841F23801032001F083
:104BC00071F85146082001F06DF80021092001F02C
:104BD00069F800210A2001F065F800210C2001F09D
:104BE00061F800210D2001F05DF800210F2001F097
:104BF00059F80021102001F055F80721112001F08B
:104C000051F80021122001F04DF80021132001F08D
:104C100049F8C82002F00AFC41F29061102001F02E
:104C200041F840F22721112001F03CF8322002F037
:104C3000FDFB0C21122001F035F8322002F0F6FBCA
:104C40004FF40061132001F02DF81121292001F00B
:104C500029F80B212B2001F025F8322002F0E6FB89
:104C60000021202001F01EF840F23F1319462120B8
:104C700001F018F80021302001F014F84FF483748B
:104C80002146312001F00EF80021322001F00AF80F
:104C90004FF40171352001F005F841F20A61362028
:104CA00001F000F82946372000F0FCFF21463820AB
:104CB00000F0F8FF2946392000F0F4FF40F20241ED
:104CC0003C2000F0EFFF40F60F413D2000F0EAFFEE
:104CD0000021502000F0E6FFEF21512000F0E2FF1C
:104CE0000021522000F0DEFF1946532000F0DAFFC9
:104CF0003146602000F0D6FF0121612000F0D2FF94
:104D000000216A2000F0CEFF0021802000F0CAFFC1
:104D10000021812000F0C6FF0021822000F0C2FFA8
:104D20000021832000F0BEFF0021842000F0BAFFA4
:104D30000021852000F0B6FF1021902000F0B2FF86
:104D40004FF4C0619220FCE32146012000F0AAFF4D
:104D50004946022000F0A6FF41F23001032000F096
:104D6000A1FF0021042000F09DFF40F20721082050
:104D700000F098FF0021092000F094FF00210A2094
:104D800000F090FF00210C2000F08CFF00210D208E
:104D900000F088FF00210F2000F084FF142002F0B3
:104DA00045FB41F2B061102000F07CFF0121112091
:104DB00000F078FF0121172000F074FF4FF49C7180
:104DC000122000F06FFF4FF40061132000F06AFF23
:104DD0000921292000F066FF09212A2000F062FF46
:104DE0000021A42000F05EFF0021502000F05AFFB7
:104DF000EF21512000F056FF0021522000F052FF19
:104E000040F23F11532000F04DFF3146602000F08A
:104E100049FF0121612000F045FF00216A2000F0D8
:104E200041FF0021802000F03DFF0021812000F0A3
:104E300039FF0021822000F035FF0021832000F09F
:104E400031FF0021842000F02DFF0021852000F09B
:104E500029FF1321902000F025FF04E016E022E155
:104E60001EE2E5E29AE30021922000F01BFF0321FD
:104E7000932000F017FF3946952000F013FF40F211
:104E80007311072000F00EFF322008E100210720F7
:104E900000F008FF322002F0C9FA4FF48E711220A0
:104EA00000F000FF0121A42000F0FCFE0F210820EB
:104EB00000F0F8FE08210A2000F0F4FE08210D2081
:104EC00000F0F0FE2B462946302000F0EBFE0721D3
:104ED000312000F0E7FE40F20361322000F0E2FEF4
:104EE0004D464946332000F0DDFE5146342000F0A7
:104EF000D9FE0221352000F0D5FE41F60F71362093
:104F000000F0D0FE1946372000F0CCFE00213820FA
:104F100000F0C8FE0021392000F0C4FE19463A20F6
:104F200000F0C0FE00213B2000F0BCFE07213C2029
:104F300000F0B8FE00213D2000F0B4FE322002F067
:104F400075FA0121072000F0ADFE0121172000F0C5
:104F5000A9FE322002F06AFA4FF4BD51102000F091
:104F6000A1FE40F21721112000F09CFE4FF48F713A
:104F7000122000F097FE4FF47061132000F092FEB3
:104F800000212A2000F08EFE0A21292000F08AFE4E
:104F90004FF49F71122000F085FE0021502000F098
:104FA00081FEEF21512000F07DFE0021522000F013
:104FB00079FE40F23F11532000F074FE314660202C
:104FC00000F070FE0121612000F06CFE00216A20DB
:104FD00000F068FE0021802000F064FE00218120A6
:104FE00000F060FE0021822000F05CFE00218320A2
:104FF00000F058FE0021842000F054FE002185209E
:1050000000F050FE1321902000F04CFE3946922013
:1050100000F048FE0521932000F044FE0021952079
:1050200000F040FE0021972000F03CFE0021982077
:1050300000F038FE2146012000F034FE294602200F
:1050400000F030FE41F23801032000F02BFE002179
:10505000042000F027FE00210C2000F023FE002198
:105060000F2000F01FFE0021202000F01BFE002179
:10507000212000F017FE2121072000F013FE14204C
:1050800002F0D4F96121072000F00CFE142002F098
:10509000CDF940F27311072000F004FE142002F055
:1050A000C5F9FFF741BB0021084600F0FBFD0021D8
:1050B000084600F0F7FD0021084600F0F3FD00214E
:1050C000084600F0EFFD0121A42000F0EBFD1420C4
:1050D00002F0ACF9314600E0DDE0602000F0E2FDD6
:1050E00055465146082000F0DDFD4FF40571302093
:1050F00000F0D8FD43F21571312000F0D3FD40F2ED
:105100000461322000F0CEFD40F61661332000F03D
:10511000C9FD42F21121342000F0C4FD4FF4A85122
:10512000352000F0BFFD48F20751362000F0BAFDEF
:1051300041F20741372000F0B5FD41F2034138202C
:1051400000F0B0FD2021392000F0ACFD1A219020A4
:1051500000F0A8FD0021102000F0A4FD072111207F
:1051600000F0A0FD0021122000F09CFD0021132082
:1051700000F098FD142002F059F94FF4E661102078
:1051800000F090FD40F23711112000F08BFD14204B
:1051900002F04CF94FF4DC71122000F083FD142072
:1051A00002F044F94FF47061132000F07BFD802180
:1051B0002A2000F077FD4821292000F073FD1420FB
:1051C00002F034F92146012000F06CFD494602202E
:1051D00000F068FD41F23801032000F063FD29462C
:1051E000082000F05FFD00210A2000F05BFD002197
:1051F0000C2000F057FD00210D2000F053FD302160
:105200000E2000F04FFD0021502000F04BFDEF215B
:10521000512000F047FD0021522000F043FD40F2F4
:105220003F11532000F03EFD3146602000F03AFD72
:105230000121612000F036FD00216A2000F032FDDE
:105240001121902000F02EFD4FF4C061922000F05B
:1052500029FD40F20241932000F024FD0221942018
:1052600000F020FD142002F0E1F80121072000F0F9
:1052700019FD142002F0DAF86121072000F012FD78
:1052800040F27311072000F00DFD0021202000F0F6
:1052900009FD0021212000F005FD222100207AE1F6
:1052A0000021084600F0FEFC0021084600F0FAFC50
:1052B000142002F0BBF80021084600F0F3FC0021A6
:1052C000084600F0EFFC0021084600F0EBFC00214E
:1052D000084600F0E7FC0121A42000F0E3FC1420C4
:1052E00002F0A4F83146602000F0DCFC40F6060134
:1052F000082000F0D7FC40F203731946302000F07C
:10530000D1FC0121312000F0CDFC0421322000F03D
:10531000C9FC4FF48171332000F0C4FC39463420BD
:1053200000F0C0FC40F20311352000F0BBFC1F214F
:10533000362000F0B7FC1946372000F0B3FC0121FD
:10534000382000F0AFFC0421392000F0ABFC15211F
:10535000902000F0A7FC4FF48261102000F0A2FC26
:1053600040F24721112000F09DFC4FF4DE71122025
:1053700000F098FC4FF46061132000F093FC78205B
:1053800002F054F82146012000F08CFC4FF400712B
:10539000022000F087FC41F23001032000F082FC83
:1053A00008210A2000F07EFC00210C2000F07AFC8D
:1053B00020210E2000F076FC00210F2000F072FC6E
:1053C0000021202000F06EFC0021212000F06AFC6A
:1053D0003D212A2000F066FC142002F027F82D2140
:1053E000292000F05FFC0021502000F05BFC4DF212
:1053F000EF01512000F056FC0021522000F052FC39
:1054000040F23F11532000F04DFC0021612000F0DC
:1054100049FC00216A2000F045FC3946922000F04A
:1054200041FC0521932000F03DFC2146FFF7B4BB71
:105430000121002000F036FC0A2001F0F7FF41F2C4
:105440002861102000F02EFC0E21122000F02AFC12
:1054500040F63921132000F025FC0A2001F0E6FF78
:105460004021112000F01EFC5021152000F01AFCF4
:105470000A2001F0DBFF1E21122000F013FC0A209D
:1054800001F0D4FF4FF4B151102000F00BFC42F6B4
:105490003921132000F006FC0A2001F0C7FF214645
:1054A000012000F0FFFB3946022000F0FBFB41F237
:1054B0003801032000F0F6FB5146082000F0F2FB13
:1054C00008210A2000F0EEFB0021302000F0EAFB6A
:1054D00040F20241312000F0E5FB4FF483713220AD
:1054E00000F0E0FB40F20351332000F0DBFB4FF40F
:1054F0008271342000F0D6FB40F20131352000F0FB
:10550000D1FB2946362000F0CDFB40F20531372093
:1055100000F0C8FB4FF40271382000F0C3FB40F6E6
:105520000B71392000F0BEFB0221412000F0BAFBD4
:105530003146602000F0B6FB0121612000F0B2FB93
:1055400000E0CDE04FF40471902000F0ABFB4FF48D
:105550008571922000F0A6FB0421932000F0A2FBAD
:105560002146A02000F09EFB0121072000F09AFBBD
:105570002121072000F096FB2321072000F092FB59
:105580003321072000F08EFB40F23311072000F09A
:1055900089FB0021A02000F085FB82E53021152049
:1055A00000F080FB10219A2000F07CFB20211120CC
:1055B00000F078FB43F22841102000F073FB022139
:1055C000122000F06FFB41F23801132000F06AFB5B
:1055D000282001F02BFF1221084600F063FB282051
:1055E00001F024FF43F22041102000F05BFB43F266
:1055F0003801132000F056FB462001F017FF002170
:10560000302000F04FFB40F20241312000F04AFB15
:1056100040F20731322000F045FB4FF44171332056
:1056200000F040FB0421342000F03CFB40F201413B
:10563000352000F037FB2946362000F033FB40F2DE
:105640000531372000F02EFB4FF4C2631946382095
:1056500000F028FB1946392000F024FB21460120E8
:1056600000F020FB3946022000F01CFB41F2300123
:10567000032000F017FB40F60801082000F012FBA1
:1056800008210A2000F00EFB3146602000F00AFBE2
:105690000121612000F006FB4FF49F71902000F083
:1056A00001FB2146922000F0FDFA2146932000F0F4
:1056B000F9FA4FF44051A02000F0F4FA1021A32091
:1056C00000F0F0FA0121072000F0ECFA2121072078
:1056D00000F0E8FA2321072000F0E4FA3321072044
:1056E00000F0E0FA40F23311A0E60346012000E0AA
:1056F0005843491EC9B2FBD2704708B54FF0D84095
:10570000B0F88000ADF80000BDF8000008BD10B58D
:1057100000F0B1FA052001F0A5FEBDE81040FFF74A
:10572000ECBF000010B50246BE2000F0A4FA052030
:1057300000F095FA104604F030F89FED0C1B53EC86
:10574000112B04F03DF803F0FBFF80B200F087FA64
:10575000012000F084FAFF2000F081FA002000F020
:105760007EFABDE81040002000F079BA66666666F1
:1057700066660440F0B57F4D00232946AA798988E2
:1057800046F6040741F66314012A01D02AB11DE050
:10579000B9421BD0A14202D118E0A14216D108287B
:1057A00014D2DFE800F00406080A0C0E10120620DE
:1057B0000CE007200AE0042008E0052006E00120B4
:1057C00004E0002002E0032000E00220A1F5134CD9
:1057D00045F2103245F21056BCF1410C07D0B942E7
:1057E00005D0914203D0B14201D0A1427BD108281B
:1057F00012D2DFE800F0110406080A0C0E10802314
:105800000AE0402308E0C02306E0202304E06023F0
:1058100002E0A02300E0E023B14202D14FF458504F
:1058200000E03620914205D0B14203D0A14201D020
:1058300043F00803B94201D143F00203194600F0D6
:1058400031FAAA88A2420AD098062888698802D527
:10585000884202D303E0884201D9298068806889A0
:10586000B24241D100F007FA002000F0F8F968894F
:10587000401C80B200F0FFF9002000F0F0F96889C8
:10588000801C80B200F0F7F92888401EC0F30F207A
:1058900000F0E5F96889C01C80B200F0ECF92878C6
:1058A000401EC0B200F0DBF9A88900F0E4F9002046
:1058B00000F0D5F9A889401C80B200F0DCF9002086
:1058C00000F0CDF9A889801C80B200F0D4F9688876
:1058D000401EC0F30F2000F0C2F9A889C01C80B29E
:1058E00000F0C9F922E028E000F0C5F9002000F03E
:1058F000B6F9002000F0B3F92888401EC0F30F204D
:1059000000F0ADF92878401EC0B200F0A8F9A889CF
:1059100000F0B1F9002000F0A2F9002000F09FF99A
:105920006888401EC0F30F2000F099F9A878BDE800
:10593000F040401EC0B200F092B9082812D2DFE851
:1059400000F0040608110A0C0E1030230AE01023A0
:1059500008E0202306E0382304E0282302E018238F
:1059600000E00823BDE8F040032043F4805100F03C
:1059700099B900007C0500202DE9F043DFF844814F
:105980000C460246050AB8F804104046A1F5134338
:1059900040894FEA1429413B17D0A1F5A643103B9B
:1059A00013D04646A1F5D047B3793688B61A761E8D
:1059B000043F0ED0A1F5C857633F1ED0A1F5AA47FA
:1059C000103F57D0012B72D072E000F054F92846F6
:1059D00005E0012B00D1B2B200F04DF9100A00F041
:1059E0003EF9D0B200F03BF9B8F80C0000F043F9F2
:1059F000484600F034F9E0B22AE06BB300F03BF91E
:105A0000284600F02CF9D0B200F029F9B8F80000CF
:105A1000401EC0F30F2000F022F998F80000401E4D
:105A2000C0B200F01CF9B8F80C0000F024F94846A8
:105A300000F015F9E0B200F012F9B8F80200401ECB
:105A4000C0F30F2000F00BF998F80200401EC0B21E
:105A5000BDE8F04300F003B9B2B200F00CF9002049
:105A600000F0FDF8002000F0FAF8100A00F0F7F856
:105A7000D0B2D6E700F0FFF8284600F0F0F8B8F80A
:105A80000A00401C80B200F0F6F8D0B200F0E7F84F
:105A9000B8F80C0000F0EFF8484600F0E0F8B8F86D
:105AA0000C00401C80B200F0E6F8A4E7FFE7B2B2B9
:105AB000114600F0F7F8B8F80C002146BDE8F043B5
:105AC00000F0F0B87C0500202DE9F84F82461F4613
:105AD0000C468B46580700D0012000EBD700790810
